:02000004700981
:10E00000494D474844520000000000000000000055
:10E01000FFFFFFFFFFFFFFFFFFFFFFFFFFFFFFFF10
:10E0200000000000000000000000000000000000F0
:10E0300000000000000000000000000000000000E0
:10E0400000000000000000000000000000000000D0
:10E0500000000000000000000000000000000000C0
:10E0600000000000000000000000000000000000B0
:10E0700000000000000000000000000000000000A0
:10E080000000000000000000000000000000000090
:10E090000000000000000000000000000000000080
:10E0A0000000000000000000000000000000000070
:10E0B0000000000000000000000000000000000060
:10E0C0000000000000800000130093270000000003
:10E0D0000000000000000000000000000000000040
:10E0E0000000000000000000000000000000000030
:10E0F0000000000000000000000000000000000020
:10E10000000000002173FC7BC48EF0118E96651117
:10E110008F068567000000004600000003000E0126
:10E1200000000000000000000000000000000000EF
:10E1300000000000000000000000000000000000DF
:10E1400000000000000000000000000000000000CF
:10E1500000000000000000000000000000000000BF
:10E1600000000000000000000000000000000000AF
:10E1700065E60970000000000000000000000000DB
:10E18000000000000000000000000000000000008F
:10E19000000000000000000000000000000000007F
:10E1A000000000000000000000000000000000006F
:10E1B000000000000000000000000000000000005F
:10E400007086012065E609700D1A0C0009180C00D1
:10E4100009180C0009180C0009180C000000000075
:10E4200000000000000000000000000039320C0075
:10E4300009180C000000000079310C00E50D0C00FB
:10E44000C5190C00C5190C00C5190C00C5190C0024
:10E45000C5190C00C5190C00C5190C00C5190C0014
:10E46000C5190C00C5190C00C5190C00C5190C0004
:10E47000C5190C00C5190C00C5190C00C5190C00F4
:10E48000C5190C00C5190C00C5190C00C5190C00E4
:10E49000C5190C00C5190C00C5190C00C5190C00D4
:10E4A000C5190C00C5190C00C5190C00C5190C00C4
:10E4B000C5190C00C5190C00C5190C00C5190C00B4
:10E4C000C5190C00C5190C00C5190C00C5190C00A4
:10E4D000C5190C00C5190C00C5190C00C5190C0094
:10E4E000C5190C00C5190C00C5190C00C5190C0084
:10E4F000C5190C00C5190C00C5190C00C5190C0074
:10E50000C5190C00C5190C00C5190C00C5190C0063
:10E51000C5190C00C5190C00C5190C00C5190C0053
:10E52000C5190C00C5190C00C5190C00C5190C0043
:10E53000C5190C00C5190C00C5190C00C5190C0033
:10E54000C5190C00C5190C00C5190C00C5190C0023
:10E55000C5190C00C5190C00C5190C00C5190C0013
:10E56000C5190C00C5190C00C5190C00C5190C0003
:10E57000C5190C00C5190C00C5190C00C5190C00F3
:10E58000C5190C00C5190C00C5190C00C5190C00E3
:10E59000C5190C00C5190C00C5190C00C5190C00D3
:10E5A000C5190C00C5190C00C5190C00C5190C00C3
:10E5B000C5190C00C5190C00C5190C00C5190C00B3
:10E5C000C5190C00C5190C00C5190C00C5190C00A3
:10E5D000C5190C00C5190C00C5190C00C5190C0093
:10E5E000C5190C00C5190C00C5190C00C5190C0083
:10E5F000C5190C00C5190C00C5190C00C5190C0073
:10E60000C5190C00C5190C00C5190C00C5190C0062
:10E61000124A08B5124B22F07F029A60BFF34F8F67
:10E62000BFF36F8FD3F8882022F47002C3F88820DC
:10E63000D3F8882042F4A002C3F888204FF040426B
:10E64000C3F83422BFF34F8FBFF36F8FB0F0B0FF2A
:10E65000B3F0BAFE00F024F8B1F008F800E4097055
:10E6600000ED00E006F110FD202080F311880B483A
:10E670004FF0AA014FF4006209F1A3FF07484FF4DD
:10E680000061401880F30988EFF3148002210843E9
:10E6900080F31488BFF36F8FFFF7BAFF706C01200F
:08E6A0005FF800F09D180C006A
:10E6A8000B460146184603F063B8000013B504464C
:10E6B8001E4B18681B7900908DF80430002C32D05E
:10E6C8001B4B44220021184602F0DAFF2268026040
:10E6D80062684260A2688260E268C2602269026180
:10E6E80062694261A2698261E269C261114A126883
:10E6F8000262A26E7AB111684162516881629168C2
:10E70800C162D1680163116941635169816391698B
:10E71800C163D26902640521684602F0E9FF442119
:10E72800034802F0E5FF02B010BD00BF88371C7037
:10E73800F4520C0038530C00032070474FF0E023CC
:10E7480010B50F499C691A6908689B690D4902F45C
:10E75800803234B993B903464AB90A681044C01ADA
:10E7680010BD002B08BF03460AB9A342F5D90A68B1
:10E7780002440A604FF0E0221269EEE70446F3E72C
:10E7880040530C0048530C0038B5EFF31185202393
:10E7980083F31288BFF36F8F184802F0EBF968B95A
:10E7A8008823174A1749184802F056FF1349174893
:10E7B80002F052FF8821124802F06EFF0F4802F063
:10E7C800D1F9134B1C68FFF7B9FF04440B4802F05A
:10E7D800DFF968B940F23113094A0E490A4802F0D4
:10E7E8003BFF06490C4802F037FF40F23111E2E7DF
:10E7F80085F31188BFF36F8F204638BD44530C0052
:10E80800F83D0C00253E0C005F4B0C003A3E0C0016
:10E818003C530C00503E0C00673E0C004FF0E022C9
:10E82800136923F0010313617047000020220A4B8B
:10E83800002083F823204FF4A072084B1A60084B7D
:10E8480040F23F1218604FF0E0235A6198611A694C
:10E8580042F007021A61704700ED00E040530C00D7
:10E8680048530C0000207047054B1B68B3F17F4FDD
:10E8780001BF4FF0E022136943F0010313617047B1
:10E8880040530C0037B500240E4B01A91B682046E5
:10E89800019498470546FFF751FF0B4A0B4910684A
:10E8A8000B681460034401200B6002F00DFF084B55
:10E8B8002A4620461B680199984700F05DF903B085
:10E8C80030BD00BF300A002048530C003C530C00F8
:10E8D8002C0A0020034A044B1968136801FB003313
:10E8E800136070473C530C0040530C00704772B6DD
:10E8F800002383F31188BFF36F8FBFF34F8F20BFBF
:10E9080080F31188BFF36F8F62B6704772B6002329
:10E9180083F31188BFF36F8FBFF34F8F30BF62B699
:10E92800BFF36F8F704700001022014B1A617047C8
:10E9380000ED00E070B544690D469CB31E4A23798A
:10E94800565CB34231D01D4A525C9A4230D1A3681A
:10E958009847002810DA022D0CD0032D0BD110F1A6
:10E96800860F07D0D4E8EF3F43F00203C4E8E23F44
:10E97800002AF6E7267170BD022D267101D000200D
:10E98800F9E7D4E8EF3F23F00403C4E8E23F002AA4
:10E99800F7D1D4E8EF3F23F00203C4E8E23F002AAE
:10E9A800EDD0F6E76FF05700E5E76FF07700E2E7A4
:10E9B8006FF08500DFE700BF903E0C008C3E0C0036
:10E9C80043693BB1D3E8EF1F21F00101C3E8E21F1F
:10E9D800002AF7D1704743693BB1D3E8EF1F41F0F4
:10E9E8000101C3E8E21F002AF7D1704770B5044659
:10E9F8000D46426900F030F848B103212046A84787
:10EA080038B920462B46BDE870400121184703233A
:10EA1800137170BD07B501A802F0EEFE182202FBC3
:10EA280000F1019B019A0A44934201D3002008E0B7
:10EA38005A690AB91833F5E7D2E8AF0F10F00100A8
:10EA4800F8D003B05DF804FB436918461BB1D3E85E
:10EA5800AF0F00F00100704743693BB1DB682BB191
:10EA68005B691879B0FA80F0400970470120704757
:10EA7800436918461BB1D868003818BF0120704791
:10EA88006FF0570070476FF05700704743691BB12C
:10EA98001B7900200B7070476FF05700704700001B
:10EAA80003289ABF024B53F820000248704700BF62
:10EAB8007C3E0C00EC420C0010B543690BB90020F9
:10EAC80010BDD3E8AF2F1007F9D5002942F0100484
:10EAD80022F010000CBF01462146D3E8EF0F904208
:10EAE80003D1C3E8E41F002CF7D10CBF012000209C
:10EAF800E6E7436918461BB1D3E8AF0FC0F3C0007F
:10EB08007047436918461BB1D3E8AF0FC0F3001034
:10EB1800704710B5044611461A4600F003F820461F
:10EB280010BD000070B504460D46164600F056FCB0
:10EB380068B117230B4A0C490C4802F08DFD214699
:10EB48000B4802F089FD1721064802F0A5FD204672
:10EB580002F034F8074B43F8306003EBC0035D6004
:10EB680070BD00BFB33E0C00E03E0C005F4B0C00D4
:10EB7800FA3E0C00A8CE0020054B5A6A9B689A42C0
:10EB88001FBF044A536843F080535360704700BF67
:10EB980060FE002000ED00E0044600B59FB00021B3
:10EBA800742201A802F06CFDE368032001A9079311
:10EBB80000F000F82DE9F84F80460C4600AF002918
:10EBC80000F0AC80D1E90012E9468AB0A3686D462E
:10EBD8004FF0050A2E465A48C5E90723C5E905013D
:10EBE80046F810AF002332464FF42151554802F041
:10EBF800A7FDD4E90312CD466369AD465248C5E97D
:10EC08000723C5E90501C5F810A0002332464FF4D3
:10EC180021514C4802F094FDCD46E36901214B4A4D
:10EC2800484802F015FD264600254FF00A0ADFF88D
:10EC38003CB1E946D6E908E0D6E90A138EB06A463F
:10EC4800C2F81CE005F1010EC2E908E0A81CC2E9FF
:10EC58000A01E91CC2E905B5C2E90C1342F810AF74
:10EC6800002345F240013748043502F069FD102DB4
:10EC7800CD4606F11006DCD1236E0121344A314815
:10EC880002F0E6FCA66E002E3CD0D6E900018AB060
:10EC9800B3686A464FF0050A2E4DC2E90713C2E968
:10ECA800055042F810AF00234FF42151254802F0D7
:10ECB80047FDD6E90312CD468AB073696D46AB4667
:10ECC8002548C5E90723C5E905014BF810AF00231E
:10ECD8005A464FF421511B4802F032FDD6E906127C
:10ECE800CD46336AAD461D48C5E90723C5E9050188
:10ECF800C5F810A000235A464FF42151114802F0DC
:10ED08001FFDCD46236F0121154A0E4802F0A0FCD5
:10ED1800A3690121134A0B4802F09AFCB8F1010FCC
:10ED280007D1EFF30583104A41460648103B02F02D
:10ED38008FFC2146404602F0BFFCBD46BDE8F88F77
:10ED48000E3F0C00F4291C703D3F0C006C3F0C007A
:10ED5800BE3F0C00CD3F0C00FC3F0C002B400C00CC
:10ED68005A400C006C400C009A400C007B3F0C0091
:10ED780030B59FB005680C466822014601A802F02C
:10ED880037FD0023284601A9CDE91C331B94FFF762
:10ED980011FF1FB030BD000070B5294C06460D4666
:10EDA8002848294900F07CFAA36AD9043CD52548AB
:10EDB800264900F075FA1720A36A1A0504D52148D8
:10EDC800234900F06DFA18201D4CA36A9B0512D543
:10EDD8001C48204900F064FAA36BA26A100409D504
:10EDE80001211D4A174802F033FC1EB1A36A23F41F
:10EDF8000043A3621920124CA36A590504D511488F
:10EE0800164900F04DFA1A20A36ADA050ED50D4806
:10EE1800134900F045FA1B20094A936A43F47F43DB
:10EE2800936200232B7070BD1620C5E7A36A9B046C
:10EE3800F2D504480B4900F033FA1C20ECE700BF78
:10EE480000ED00E0F4291C70AD400C00C3400C003C
:10EE58007E410C00D4400C00ED400C0002410C0037
:10EE68001D410C00DE410C0070B5344C06460D46C1
:10EE78003348344900F014FAA36AD9064DD530480E
:10EE8800314900F00DFA1120A36A1A0704D52C485D
:10EE98002E4900F005FA1220284CA36A9B0712D5C8
:10EEA8002B49274800F0FCF9636BA26A110609D5C3
:10EEB8000121284A224802F0CBFB1EB1A36A23F0A5
:10EEC8008003A36213201D4CA36ADA0704D51C48EB
:10EED800214900F0E5F91420A36A9B0604D51848D7
:10EEE8001E4900F0DDF91520144B9A6AD60602D4A3
:10EEF8009A6A940713D59B6AD90610D518494FF416
:10EF0800B373184A184802F0A7FB184802F0A4FB8C
:10EF18004FF4B371134802F0BFFB1020B4E7074B5E
:10EF28009A6A920642BF5A6A22F400525A629A6A50
:10EF380042F0FF029A6200232B7070BD00ED00E0E2
:10EF4800F4291C7035410C004B410C007E410C002B
:10EF580091410C00A9410C00BF410C00DE410C009E
:10EF68003F420C000D420C005F4B0C0089420C0024
:10EF780010B5244C2449254800F092F9A36A990158
:10EF88003ED52248224900F08BF91E20A36ADA01F7
:10EF980004D51E481F4900F083F91F20194CA36AA5
:10EFA800DB0204D519481C4900F07AF90220A36A4B
:10EFB8001C0304D51548194900F072F92120114C99
:10EFC800A36A590304D51148154900F069F92220AC
:10EFD800A36A9A0304D50D48124900F061F9232069
:10EFE800084CA36ADB0304D508480F4900F058F918
:10EFF8002420A36A6FEA03436FEA1343A36210BD98
:10F008001D20C3E700ED00E0ED420C00F4291C7060
:10F0180005430C0018430C0032430C005C430C0001
:10F028007A430C009F430C00B9430C002DE9F047CC
:10F03800A0B000269A467E4B00AF81460D4630466A
:10F048001B68BE6007F108019046984702F0C0FBB4
:10F05800784B5A68C2F3080386F31188BFF36F8FA1
:10F0680008F07F41B1F17F4F07D108F00C01082962
:10F0780012D17149714800F013F9714940F26F4398
:10F08800704A714802F0E8FA704802F0E5FA40F276
:10F098006F416C4802F000FB18F0080F04BF4D46A2
:10F0A8000126002DE9D06A490D600021F971D91EA9
:10F0B800092900F29C80DFE801F0059295759A9A7B
:10F0C8009A9A9A9863495D4800F0EAF80023594CE7
:10F0D800FB71E36A9A0705D55F49584800F0E0F8E4
:10F0E800002429E0E36A002B01DA5C49F5E7E36ACA
:10F0F8005B0067D55A49514800F0D2F86369AA699C
:10F1080043F480736361BFF34F8FBFF36F8F6369FD
:10F1180032F8022C23F480736361BFF34F8FBFF37F
:10F128006F8F4DF602739A4226D12B6801214D4A02
:10F13800424802F08DFA2C68FB79CBB9682229463F
:10F1480007F10C0002F054FBC7E91DA9BB6AC7F818
:10F158007C80002E67D0C3F3080222B96FEA5323DC
:10F168006FEA4323BB62204607F10C01FFF722FD3B
:10F178008037BD46BDE8F087A36ADBB22BB101201A
:10F18800F91DFFF771FE0446D6E7A36A13F47F4F13
:10F1980004D00120F91DFFF7FFFDF4E7A36AB3F5DA
:10F1A800803F02D3FFF7E4FEEDE72F4940F22D330D
:10F1B800244A254802F050FA2C4802F04DFA40F251
:10F1C8002D3166E7284940F231331E4A1E4802F0C5
:10F1D80043FA274802F040FA40F2313159E700205B
:10F1E800F91DCEE70020F91DD5E7224975E712F48D
:10F1F800F87F214A6C468AB0204918BF11466A46F2
:10F20800103BD3614FF400731D4813841D4BC2E9B2
:10F21800050142F8103F00234FF41151074802F04E
:10F228008FFAA5465CE723F4FF7323F0010399E7FF
:10F23800300A002000ED00E012440C00F4291C7094
:10F248003D440C000D420C005F4B0C0050440C0078
:10F2580038530C008E440C00A5440C00C6440C0026
:10F26800D4440C00F3440C005D4B0C000F450C001B
:10F2780033450C0063450C00F9430C00E4430C00D3
:10F2880087450C0004000001044B5A6942F0100243
:10F298005A615A6942F480625A61704700ED00E091
:10F2A8000A46012102F0BCBAEFF30880EFF30981A6
:10F2B80001B506B42DE9F00F6B467246FFF7B6FEAE
:10F2C8000AB001BD90F884306BB1EFF3148343F0BA
:10F2D800040383F31488BFF36F8F00F1400390ECAD
:10F2E800100A93EC108A704708B548B910491148BC
:10F2F8001423114A02F0B0F914210F4802F0CCF996
:10F30800EFF314835A0711D500F1400280EC100A7C
:10F3180082EC108A0022C0F88020012223F0040326
:10F3280080F8842083F31488BFF36F8F08BD00BF73
:10F33800CA450C005F4B0C009A450C0000B54FF015
:10F34800740E002320214EF001E00448C21882F810
:10F35800001301330FF007C05DF804FB00E100E083
:10F3680008B572B6044B1A6A1AB100221A6202F082
:10F3780053FA62B608BD00BF60FE002038B50446E7
:10F388000D4611461A46FFF7CDFB20462946049A3A
:10F3980000F032F8204638BD40B200280CDB0122CC
:10F3A8000649430900F01F008240203341F823201A
:10F3B800BFF34F8FBFF36F8F704700BF00E100E0CE
:10F3C80040B2002807DB01234109034A00F01F006F
:10F3D800834042F82130704700E100E0054B4209C4
:10F3E80053F82220012300F01F0003FA00F0104018
:10F3F800704700BF00E100E038B54B1C072B0446FE
:10F408000D460FD95823104A1049114802F024F923
:10F41800294610480723224602F01EF958210A48B7
:10F4280002F03AF940B20028ACBF00F160400A4A45
:10F438004FEA4313DBB2ABBF00F5614000F00F00A9
:10F4480080F80033135438BDE0450C0017460C0013
:10F458005F4B0C0032460C0014ED00E00021012047
:10F46800FFF7A8BB73B5EFF3058400250C4B01A982
:10F4780028461B680195984706460A4B103C03EB43
:10F48800C40253F8340052689047074B3246284666
:10F498001B6801999847FFF76FFB02B070BD00BF6A
:10F4A800300A0020A8CE00202C0A002008B5034B03
:10F4B8001B689847BDE80840FFF75EBBF0520C0098
:10F4C800014B1860704700BFF0520C0030BFFFF7C7
:10F4D800FDBF00BF022870B504460D46164606D18A
:10F4E8000846FFF7EDFF01203070012070BD0F289E
:10F4F8000AD801460B484AF7DBFE032CF3D029460D
:10F50800204644F755FFEEE7074B9B6823B90748A9
:10F518004AF7CEFE0020E7E709B90548F8E701F009
:10F528000BFAE1E772460C0000ED00E0A7460C007C
:10F53800CB460C000020514360F7DCBC084660F75E
:10F548001BBD002060F7B8BC37B50D480D46144602
:10F5580002F0EAF830B91CB102F092F90C2303600A
:10F5680000200AE00022002300682946CDE9002394
:10F57800224602F0E1F80028EDD003B030BD00BF0C
:10F58800F4530C00093008B52CBF012100210A22D0
:10F5980000236FF7A5FA02F063F9012008BD000007
:10F5A80011F0FA0F2DE9F34190461E46CFB20CD068
:10F5B800BB1E012B4FF000024FF0000328D8CDE905
:10F5C800002341463246174816E0002400251A4613
:10F5D8004146CDE90045144802F032F8A8B9324650
:10F5E8004146CDE90045114802F02AF868B932468B
:10F5F8004146CDE900450E4802F022F828B90D48E9
:10F608003246394602F02CF8002002B0BDE8F081FD
:10F618001820CDE90023064B3246414600FB07304F
:10F62800EAE700BF7C530C00C4530C00AC530C0039
:10F638004C530C00BB480C0038B50125234CD4E8CA
:10F64800EF3F002B03D1C4E8E25F002AF7D104D0D2
:10F658001F48BDE838404AF72BBE1E491E4802F035
:10F66800F7F8D4E8EF3FC4E8E25F002AF9D14FF495
:10F6780060421A491A4802F07FF8002218491648D1
:10F6880002F00EF84FF478421649174802F074F861
:10F6980000221549104802F003F84FF48432134948
:10F6A800134802F069F8002211490B4801F0F8FFED
:10F6B8004FF480620F49104802F05EF8BDE8384008
:10F6C80000220D49044801F0EBBF00BF3C550C0077
:10F6D800F8480C00011B0C00F4530C0000A0032098
:10F6E8004C530C00000840207C530C0000780C00A0
:10F6F800C4530C0000FC0120AC530C00EFF3118341
:10F70800202282F31288BFF36F8F036001207047B5
:10F7180010B51C46002323600B460146024801F041
:10F72800EFFF2060012010BDF4530C0000F00EB86C
:10F73800002310B5144613600A460146024801F03A
:10F74800F7FF2060012010BDF4530C00014608B5F6
:10F7580010B1024801F01EF9012008BDF4530C0055
:10F7680073B5002060F728FC0446022060F724FCEB
:10F778000546042060F720FC0646052060F71CFCBF
:10F78800334600902A46214602484AF791FD02B0C6
:10F7980070BD00BF1D490C0070B504460E4686B00A
:10F7A80005281CD8DFE800F0221B031B18254FF49E
:10F7B80078451820104B03A900FB043002F03CF8F0
:10F7C800039B059A33602146CDE900320B482A464F
:10F7D800049B4AF76DFD06E04FF48065E9E70146B2
:10F7E800074801F03DFF012006B070BD4FF46045A9
:10F7F800DFE74FF48435DCE74C530C007D490C00FF
:10F8080057490C0070B50026154616600C460A4686
:10F818000146054801F08CFF286018B122463146A0
:10F8280001F02EFF012070BDF4530C00F8B501461D
:10F8380016461D46074600B334220021174801F03A
:10F8480077FF044638B33422002101F019FF002164
:10F85800042206FB05F311483C6001F051FF014604
:10F8680078B133462A46204601F03AFF01230021A9
:10F8780084F83030B1FA81F14909069B01201970EA
:10F88800F8BD0648214601F085F805484AF710FDFD
:10F898006FF00B01EEE70348F8E700BFF4530C00E4
:10F8A800CB490C00034A0C0038B590F830300446B8
:10F8B80013F001030D4610D04169094801F06AF8B8
:10F8C8000023636194F83030214623F0010384F863
:10F8D8003030034801F05EF801232B70012038BD59
:10F8E800F4530C00034610B1436A0B600123012056
:10F8F8001370704770B51C46531C05460E4616D04B
:10F9080012F109004FF000034FF00A022CBF012149
:10F9180000216FF7E5F802460B463146284601F00C
:10F92800C3FEB0FA80F040092070012070BD4FF08E
:10F93800FF321346F1E770B51C46531C05460E46C8
:10F9480016D012F109004FF000034FF00A022CBF45
:10F95800012100216FF7C4F802460B4631462846BC
:10F9680001F02AFFB0FA80F040092070012070BD34
:10F978004FF0FF321346F1E770B5142206460D46E4
:10F988000A48002101F0D4FE044658B1142200218F
:10F9980001F076FE204601F07BFF346001242C70D4
:10F9A800012070BD02484AF783FCF8E7F4530C00C5
:10F9B8003B4A0C0038B50D46044630B9064907489D
:10F9C8004AF776FC2C70012038BD0146044800F047
:10F9D800E1FF0124F6E700BFB7470C00734A0C00AB
:10F9E800F4530C0038B50D46044630B906484AF7BA
:10F9F8005FFC20462870012038BD01F0D5FEB0FA22
:10FA080080F04009F6E700BF9B4A0C0038B5154660
:10FA1800044630B910484AF74BFC204628700120AC
:10FA280038BD4B1C13D011F109004FF00A024FF0FA
:10FA380000032CBF012100216FF752F802460B4644
:10FA4800204601F025FEB0FA80F04009E6E74FF0C5
:10FA5800FF321346F4E700BFBD4A0C002DE9F74317
:10FA6800064601F001FE00250446DFF8AC80DFF809
:10FA7800AC90234F14B94FF0FF3506E023691D44BD
:10FA8800A368434528D13B6823B90120356003B0FA
:10FA9800BDE8F0835A6812680092DAB1A24219D11F
:10FAA800684601A960F76AFF019B1BB300991548D6
:10FAB8004AF7FEFB40F24E63134A1449144801F01A
:10FAC800CBFD0099134801F0C7FD40F24E610E4886
:10FAD80001F0E2FD1B68D7E74B45D6D1FB68A4F1DE
:10FAE8001801002BD1D05A6812680AB1914201D08E
:10FAF8001B68F6E7204601F013FE0446BAE700BF8C
:10FB0800541F0020DF4A0C00174B0C005D4B0C0003
:10FB18005F4B0C007C4B0C00E12A1570A9871A700A
:10FB2800012070471D4B70B503F5006282F3088809
:10FB380083F30A880025E026194C84F82260E577CB
:10FB480025766576A576636A43F4E0236362FFF75A
:10FB58009BFBFEF7E9FE4FF0FF33124AA362E36214
:10FB680084F8226084F82360D2E92B31D2F8B420DB
:10FB78000B449B1A83F30988BFF36F8FEFF3148349
:10FB880043F0020383F31488BFF36F8FBFF36F8FC3
:10FB980005482B462A46294601F0BAFD706C01201B
:10FBA80000ED00E050FC002055FD147010B5074B27
:10FBB800074C1B6898474FF0E023002220601A6129
:10FBC800012061F755FA6060012010BDE0110020A6
:10FBD800B01C002010B50124047001F071FD20460E
:10FBE80010BD000010B5044603484AF761FB002326
:10FBF8002370012010BD00BF904B0C0038B505469E
:10FC08000C4601F015FE50B1064B9B68DB7BB3FA3E
:10FC180083F35B095B0001202B60207038BD012352
:10FC2800F9E700BF60FE002010B5044603484AF714
:10FC38003FFB00232370012010BD00BFB84B0C0010
:10FC480010B50124047001F083FD204610BD0000AA
:10FC5800F8B50021054616460C4818221F4601F043
:10FC680067FD044670B11822002101F009FD204605
:10FC78003A46314601F0C8FD2C600124069B01205C
:10FC88001C70F8BD02484AF713FBF7E7F4530C0061
:10FC9800DF4B0C0038B50D46044630B90649074815
:10FCA8004AF706FB2C70012038BD0146044800F0D5
:10FCB80071FE0124F6E700BFF4470C00154C0C0058
:10FCC800F4530C0010B50C4638B9094909484AF7ED
:10FCD800EFFA00232370012010BDD0E902329A42C6
:10FCE80002D103490448F2E701F06AFD0123F1E774
:10FCF800CE470C003A4C0C005E4C0C0038B515464B
:10FD0800044638B9104811494AF7D2FA20462870F3
:10FD1800012038BD4B1C13D011F109004FF00A0225
:10FD28004FF000032CBF012100216EF7D9FE0246D7
:10FD38000B46204601F03CFDB0FA80F04009E6E7AA
:10FD48004FF0FF321346F4E7884C0C00E1470C00F3
:10FD58004FF4FA43036001207047F8B507460C4694
:10FD680001F012FD06460D46384601F0C5FCC4E90F
:10FD780000650120F8BD642303600120704710B5B9
:10FD8800044601F0B1FC0A23A0FB0330C4E90030AB
:10FD9800012010BD08B5012001F0AEFC012008BD0E
:10FDA8002DE9F04F8DB0099183469046994600227F
:10FDB80000232E480BA9BDF85870189E01F078FC56
:10FDC8000446F0B901464FF49C720B9801F058FCB8
:10FDD8003B46082221462648BDF85CA001F090FC6D
:10FDE800CAF1060A054698B90B99204801F03CFD6E
:10FDF80020480B954AF75CFA357001200DB0BDE834
:10FE0800F08F0A211C484AF753FA00233370F4E7AD
:10FE18003A46214601F034FC0B98C0F8305100F501
:10FE2800847001F071FC0B98224600F5847301215F
:10FE380000F58C7001F028FD0B98C0F82C41CBF828
:10FE48000000002200232946CDE90623CDE903A4BA
:10FE580043463A46CDE90144CDF8009001F082F8D6
:10FE680010B1099901F0CEF80123CFE7B8D30020EB
:10FE7800F4530C00CC4C0C00AC4C0C0038B50D46BF
:10FE8800044628B909484AF713FA2C70012038BDEE
:10FE980001F0B8F9D4F83011054800F07BFD21468F
:10FEA800044801F0E1FC0124EFE700BF044D0C0019
:10FEB800F4530C00B8D3002038B50D460446034669
:10FEC80018B101F04DFC012320602B70012038BDD2
:10FED80038B515460C4631B9084909484AF7E8F9D2
:10FEE8002C70012038BD08B901F03AFC01F09AF8ED
:10FEF800C0F1060020800124F2E700BF9B470C00F8
:10FF08001A4D0C00062938B5154607D900230949AA
:10FF1800094813704AF7CCF9012038BDC1F1060130
:10FF28008CB208B901F01CFC214601F035FC012314
:10FF38002B70F1E77F470C00314D0C0038B50D46AA
:10FF4800044628B904484AF7B3F92C70012038BD93
:10FF580001F016FC0124F8E7664D0C0038B50D4693
:10FF6800044630B90E490F484AF7A2F92C7001200F
:10FF780038BDEFF31181202383F31288BFF36F8F0D
:10FF88000022D0F828319A60D0F8243162F39433F3
:10FF9800C0F8243181F31188BFF36F8F0124E5E79E
:10FFA8002D470C007C4D0C00012070472DE9F843CB
:10FFB8000D461646074638B91070424942484AF776
:10FFC80077F90120BDE8F88300F023FF804620B1CF
:10FFD80000233C493D483370F1E701F0C1FB04467A
:10FFE80000F58C7975B16B1C1ED015F109004FF026
:08FFF8000A024FF0000348F17A
:02000004700A80
:1000000000016EF771FD02460B4601E0002200235D
:100010000121484601F00CFC10F10B0F02460CD0F8
:1000200080B1002329492C4833704AF745F9CCE7C1
:100030004FF0FF324FF0FF33EAE700232349274810
:100040003370C0E7D4F8243103F4FE13B3F5804FC6
:100050000ED0234940F20943224A234801F000FB15
:10006000224801F0FDFA40F209411E4801F018FB58
:10007000D4F828319B68012B0CD01D4940F20C4369
:10008000184A194801F0ECFA1A4801F0E9FA40F26E
:100090000C41EAE7EFF31180202181F31288BFF3CE
:1000A0006F8FD4F828118A60D4F8241162F3943148
:1000B000C4F82411D4F82C113960C4F82C2180F331
:1000C0001188BFF36F8F33707FE700BF49470C0083
:1000D0009B4D0C00C44D0C00EC4D0C00E04D0C0091
:1000E000044E0C00174B0C005F4B0C00434E0C00F1
:1000F000604E0C00864E0C0038B5144600B139B97C
:1001000000230F490F4823704AF7D6F8012038BD65
:10011000EFF31185202282F31288BFF36F8FD0F89E
:100120002C210A43C0F82C2185F31188BFF36F8F6F
:1001300000F5847001F0F4FA01232370E6E700BFB4
:1001400064470C00A04E0C0038B50D46044628B993
:1001500004484AF7B1F82C70012038BD01F01CFBAF
:100160000124F8E7E04E0C0010B5044600F055FEFF
:1001700030B105484AF7A0F800232370012010BDD4
:1001800001F036FB0123F8E7F74E0C0010B51446DA
:1001900038B9094909484AF78FF80023237001202C
:1001A00010BD036813B904490548F4E793F83830E3
:1001B0000B600123F2E700BF0D470C005F4F0C00FE
:1001C000894F0C002DE9F7430646894690461F46A5
:1001D00000220023264801A901F06EFA044660BB04
:1001E000019D01465022284601F04EFA9DF8283024
:1001F00022462846C5E90F780B99C5F8489085F83E
:10020000383001F0A5FAEFF31181202383F312882F
:10021000BFF36F8F174A402315460198306052F89C
:10022000047B97B945F8240081F31188BFF36F8FE1
:1002300001240C9B01201C7004E00F4840214AF768
:100240003BF8002003B0BDE8F083013B04F101045A
:10025000E5D181F31188BFF36F8F00240199044821
:1002600001F006FB054834604AF726F8E1E700BFD5
:10027000D8D300203C540C00114F0C00324F0C001E
:10028000F8B50E46054638B91B491C484AF714F81C
:10029000002333700120F8BD046814B916491848CA
:1002A000F4E7636C012B04D1204601F019FA002316
:1002B00063642146134801F0DBFAEFF31180202339
:1002C00083F31288BFF36F8F0F4900220F4640233C
:1002D00051F804CBA4450AD1002347F8223000236B
:1002E0002B6080F31188BFF36F8F0123D1E7013BAF
:1002F00002F10102ECD1F2E73A480C005F4F0C002A
:10030000894F0C00D8D300203C540C003F280246F3
:1003100008B506D905484023054949F7CDFF002017
:1003200008BD044B53F82000FAE700BFAB4F0C00A8
:10033000A7480C003C540C0010B5144638B90849C5
:10034000084849F7B9FF00232370012010BD036856
:1003500013B903490448F4E71B6C0B600123F3E76E
:1003600023480C00E94F0C001C500C0000234021D6
:1003700010B50246084850F8044B944201D1D8B257
:1003800010BD013903F10103F5D10448044949F7CF
:1003900093FFFF20F4E700BF3C540C0065500C00B5
:1003A00094480C002DE9F04180460F461646002186
:1003B0001C220E481D4601F0BFF9044670B1C0E989
:1003C000048786610A4901F003FA204601F054FAD5
:1003D000C043C00F28700120BDE8F08105480649E0
:1003E00049F76AFF6FF00900F2E700BFF4530C0011
:1003F0007D2E0C009D500C00EA460C0037B51546CA
:1004000040B92149214849F757FF002301202B70AB
:1004100003B030BD046814B91B491D48F3E7EFF37E
:100420001183202282F31288BFF36F8FE16383F37D
:100430001188BFF36F8F94F83810012912D1E06B47
:100440000A2209302CBF0121002100236EF74CFB4A
:1004500002460B46CDE90001204601F0F9F90123DF
:100460006364D3E70029FAD1E06B0A2209304FF028
:10047000000341F100016EF737FB02460B460020F6
:100480000021CDE90001E7E766480C005F4F0C0052
:10049000894F0C0037B50D4640B91B491B4849F739
:1004A0000BFF002301202B7003B030BD046814B98A
:1004B00015491748F3E794F83810012912D1E06B79
:1004C0000A2209302CBF0121002100236EF70CFB0A
:1004D00002460B46CDE90001204601F0B9F901239F
:1004E0006364DFE70029FAD1E06B0A2209304FF09C
:1004F000000341F100016EF7F7FA02460B460020B7
:100500000021CDE90001E7E77E480C005F4F0C00B9
:10051000894F0C0070B50D46144638B91049114882
:1005200049F7CAFE00232370012070BD006810B98E
:100530000B490D48F4E7EFF31186202383F312886B
:10054000BFF36F8F01F00CF90A23434314BF01235B
:1005500000232B7086F31188BFF36F8F0123E2E72E
:1005600009480C005F4F0C00894F0C0010B50C4679
:1005700038B90B490B4849F79FFE0023237001202F
:1005800010BD006810B906490748F4E7436C13B979
:1005900003490648EFE701F0A3F80123EEE700BFA7
:1005A00051480C005F4F0C00894F0C00DA500C00D2
:1005B00080F31188BFF36F8F0120704708B5094A97
:1005C000094B1A6000F012F800F03EF800F0A0F8B5
:1005D00000F0D0F800F016F900F06AF9BDE8084024
:1005E00000F056B8351A0C00A022002008B5FFF71D
:1005F00027F8094B094A1A60094B0A4A1A600A4B44
:100600000A4A1A600A4B0B4A1A600B4B0B4A1A60D3
:100610000B4B0C4A1A6008BD7C230020911C0C0077
:1006200088230020651D0C0074230020711C0C0021
:1006300080230020AD1C0C00782300208D1C0C00B2
:1006400084230020F91C0C00074B084A1A60084B51
:10065000084A1A60084B094A1A60094B094A1A608D
:10066000094B0A4A1A607047902300208D1D0C0028
:1006700094230020091E0C0098230020451E0C0026
:10068000A0230020971E0C009C230020551E0C0068
:100690000D4B0E4A1A600E4B0E4A1A600E4B0F4A53
:1006A0001A600F4B0F4A1A600F4B104A1A60104B1A
:1006B000104A1A60104B114A1A60114B114A1A6005
:1006C000114B124A1A6070479C240020FD280C0030
:1006D000F02300200D210C00E023002081200C00DD
:1006E0004C240020F5220C0040240020BB220C00EA
:1006F00044240020D7220C003C240020B1220C000E
:10070000CC230020BD1F0C00E823002085200C0016
:100710000A4B0B4A1A600B4B0B4A1A600B4B0C4AE4
:100720001A600C4B0C4A1A600C4B0D4A1A600D4BA8
:100730000D4A1A600D4B0E4A1A607047682300205C
:10074000E51A0C0048240020DF220C001C240020A5
:1007500045210C002424002089210C00282400209D
:10076000A1210C001824002035210C002024002099
:100770005D210C000F4B104A1A60104B104A1A6092
:10078000104B114A1A60114B114A1A60114B124A50
:100790001A60124B124A1A60124B134A1A60134B1A
:1007A000134A1A60134B144A1A60144B144A1A6005
:1007B000704700BF702300205D1C0C00BC2400208B
:1007C000092B0C002C240020B1210C003024002027
:1007D000F5210C00382400205D220C003424002078
:1007E00025220C00A4230020D91E0C00A8230020E1
:1007F000151F0C00B02300206D1F0C00AC2300203F
:10080000451F0C00124B134A1A60134B134A1A600F
:10081000134B144A1A60144B144A1A60144B154AAD
:100820001A60154B154A1A60154B164A1A60164B7A
:10083000164A1A60164B174A1A60174B174A1A6065
:10084000174B184A1A60184B184A1A60704700BFB5
:100850005024002001230C0054240020DD230C0030
:1008600078240020A1260C00642400209D240C0084
:100870007C240020C1260C005824002019240C00E0
:100880005C24002031240C006024002065240C002E
:100890006C24002009250C007424002051260C0033
:1008A000702400200D250C0068240020BD240C00BD
:1008B0000C4B0D4A1A600D4B0D4A1A600D4B0E4A37
:1008C0001A600E4B0E4A1A600E4B0F4A1A600F4BFD
:1008D0000F4A1A600F4B104A1A60104B104A1A60E8
:1008E000704700BF9424002091280C00842400202D
:1008F0001D270C00A4240020ED290C00A0240020BA
:1009000055290C00AC240020C52A0C0088240020A6
:10091000D9270C00A82400206D2A0C008024002078
:10092000E5260C0010B504460369D0E90501984797
:100930002146BDE81040014800F030B8F4530C00E7
:1009400038B5A0F11003732B0D4623DC5AB2002AF0
:100950001ADB5409A40004F1604404F561442068E2
:1009600002F01F02D040C0070ED501259540C4F803
:100970008050BFF34F8FBFF36F8F00221846FEF7F2
:10098000D5F82560012038BD002229461846FEF71B
:10099000CDF8F7E7BDE8384043F70EBD10B50C467B
:1009A00000F0C6FE28B12146BDE81040006800F006
:1009B00057BF10BD70B516200D4D3EF7D1FE172064
:1009C0003EF7CEFE00F088FE00F00EFF2C68094EC8
:1009D000013C002C05DA00232B60BDE8704000F0DC
:1009E00013BF56F824000121FDF7A8FF013CF0E7F2
:1009F000E0550C0060D2002008B572B660F79AF995
:100A000000F0B6FE62B6BDE8084000F021BE7047B7
:100A10002DE9F04782B000AF3FF7ACF803F047F89C
:100A200003F07EF802F092FF381D00F0E9FE00238B
:100A3000DFF8AC807C68C8F80030182358431838B9
:100A400004447B689C4203D20837BD46BDE8F0876A
:100A5000204600F015FFB8B32046FDF7F9FF98BB1C
:100A60002046FEF752F8064670BB01462046FDF7C9
:100A700065FF20F020037833054625D010F1860F5E
:100A800022D0002818DA0120E946D4F800A0FEF7A9
:100A90000BF88AB06A460D4BC2E90705C2E9053A70
:100AA0000B4B53620B4B42F8103F4FF4415133460E
:100AB000094800F049FECD46D8F80030074A42F810
:100AC00023400133C8F80030183CBAE7FE500C0050
:100AD0000002010305000002142A1C7060D20020ED
:100AE000E0550C0008B5002000F0AEFE022000F03A
:100AF000C3FD0C4B0C4A05211A600C4B0C4A0D48E7
:100B00001A600D4B7F221B68984700210B4800F0AC
:100B100083FE01210A4800F07FFE1E22094B0020BF
:100B20005A6308BD90610120E4550C0094610120D6
:100B300040550C00512F0C0018110020692F0C009B
:100B40000D2F0C002C110020BFF34F8F0549064BD1
:100B5000CA6802F4E0621343CB60BFF34F8F00BF5B
:100B6000FDE700BF00ED00E00400FA05024B1A7C2F
:100B70009B6813430360704760FE0020006838B133
:100B8000044B00F003001B7CC01A18BF0120704703
:100B90000120704760FE0020002302680360EFF32D
:100BA0000581074B19B19968497BC90706D4197C9F
:100BB00098680843831A584258417047012070478B
:100BC00060FE0020732808B509D90549054814239B
:100BD000054A00F045FD1421034800F061FD08BD01
:100BE0005F510C005F4B0C0030510C006FF00A019C
:100BF000094A9368C3F8C0100849C3F8BC004B68A1
:100C000043F080534B60002383F31188BFF36F8F51
:100C10009368D3F8C000704760FE002000ED00E04C
:100C200001B500F0F1FABDE801402A498A6882F86E
:100C300005E14FF040001044EFF3098C80E8F01F0D
:100C40001EF0100F03D102F1C40080EC108A2020A6
:100C500080F31288BFF36F8F1F4F4FF000664A6A10
:100C60008A603E6092F905E104B54FF000001B4C2C
:100C700021688847BDE80440D2F8BC000023C2F8D0
:100C8000BC3080F311881EF0100F03D00023E1EE7A
:100C9000103A03E002F1C40090EC108AEFF31483E1
:100CA00023F0040383F31488BFF36F8F02F1400035
:100CB00090E8F01F8CF3098802F1000004B500F001
:100CC000A7F8BDE8044001B500F098FABDE801407E
:100CD0007047000060FE002004ED00E01C0A0020C8
:100CE0001EF0040F0CBFEFF30880EFF30980816959
:100CF00011F8021C0229FFD001B5EFF3098106B4F7
:100D00002DE9F00F6946FEF737F80AB001BD00BFC4
:100D1000104B9B6883421AD1EFF30580B8B9EFF30B
:100D20001181202282F31288BFF36F8F1A7B22F089
:100D300002021A73EFF3148323F0040383F314887D
:100D4000BFF36F8F81F31188BFF36F8F70476FF020
:100D50001500704760FE00206FF085007047EFF3CC
:100D60001180202383F31288BFF36F8F704761B621
:100D700062B680F31188BFF36F8F7047017B203A12
:100D800041F0020101734FF47D41C0F8041113607A
:100D9000009B08495360019B21F001019360029B75
:100DA0009161D3604FF08073D36100230266C0F875
:100DB000BC307047CF4D1A7008B504460E46154634
:100DC000EFF3148323F0040383F31488BFF36F8FCE
:100DD000BFF36F8F0D4B986000F010FAD4F8AC3071
:100DE00083F30B882C4686F309884FF00000054BEF
:100DF000984720464FF000014FF000024FF00003EB
:100E0000014C2047C7320C00CF4D1A7060FE002005
:100E1000D0F8AC3083F30B887047EFF305800038CF
:100E200018BF012070478830704710B5044686B05F
:100E300028B31822002100F027FC6946002000F0AA
:100E4000B1FAD4E90032002000995B18019942EB15
:100E500001020299C4E90032D4E902325B18039915
:100E600042EB01020499C4E90232D4E904325B186E
:100E7000059942EB0102C4E9043206B010BD6FF0DF
:100E80001500FAE708B520B119B100F0FFFA00200B
:100E900008BD6FF01500FBE72DE9F74F0C46D1B305
:100EA000CAB3477BDFF87C800846561E6FB34FF00D
:100EB00000094FF0010A4D460AFA09FB17EA0B0F29
:100EC0001DD0D8F80410721B8A4228BF0A46D8F8F1
:100ED0000010019200F090FC019A37EA0B071544CC
:100EE00004EB050011D0A6EB050BBBF1010F28BFE9
:100EF0004FF0010B09495A4600F07EFC5D4409F1B0
:100F0000010908F108086019D6E70023037020469C
:100F100003B0BDE8F08F0248FAE700BF75510C003E
:100F2000EC420C0078510C0008B5074CA468257BF6
:100F3000C4E91D0125F0010545F00405C4E91F239E
:100F4000257300F0E9FB00BF60FE0020EFF305838E
:100F50003BB9054B9B68D8897F288CBF00200120B6
:100F600070470020704700BF60FE0020F0B587B0DA
:100F70000446DDE91276EFF3058575B1194940F2B3
:100F80009723194A194800F06BFB194800F068FBD9
:100F900040F29721144800F083FB0595109D0495BD
:100FA0000F9D03950E9D02950D9D01950C9D00953D
:100FB00000F050F8B6F1FF3F08BFB7F1FF3F05D092
:100FC00056EA070305D1204600F0EEFB204607B0A5
:100FD000F0BD3A463346074904F1180000F050FBD3
:100FE000F4E700BFE7510C001E520C005F4B0C00F1
:100FF000F9510C00A9871A7008B50B4600F1880159
:10100000184600F0EDFB002008BD000010B50446B6
:1010100008B9054B9C681F2204F1880000F0E0FB32
:10102000002084F8A70010BD60FE002090F90E009B
:1010300070470A46D0E92B0100F0D2B800F0B4BBEB
:1010400010B500240373C0E90644846042738173C1
:10105000C47310BD2DE9F04F85B0119F04460F2FCA
:101060000E469946DDF838B0DDF84C8049D150493C
:101070008B4248D104F16801C4E91A111299002584
:1010800021730421073222F0070A52466173A773C5
:10109000AA213046C4E90655A560E57300F0F4FACC
:1010A000109BC4E92B6AC4F8B45002930F9B06EB63
:1010B0000A07CDE900B33A464B4631462046FFF7D2
:1010C0005DFE0F9BC4E91D9BE367109B6566C4F83A
:1010D0008030EFF31189202383F31288BFF36F8FE1
:1010E0003448FFF74BFD00BB8823334A334934486B
:1010F00000F0B6FA2F49334800F0B2FA88212E48A2
:1011000011E00E2FB6D940F20D232F4A2F492C485B
:1011100000F0A6FA39462E4800230E2200F0A0FA6D
:1011200040F20D21284800F0BBFA2A4E2148FFF773
:101130001DFD736B1F48C4F884307463FFF72CFDEA
:1011400068B940F231131C4A23491D4800F088FA5F
:101150001849224800F084FA40F23111CFE789F3B0
:101160001188BFF36F8FB8F1000F0FD01F224146D7
:1011700004F1880000F034FB84F8A750B36843B949
:10118000C4F8B830384605B0BDE8F08F84F88880E0
:10119000F4E7D3F8B8301022C4F8B830002104F1D5
:1011A000300000F071FA012384F83830EAE700BF1C
:1011B00055FD1470D4430120F83D0C00253E0C0071
:1011C0005F4B0C003A3E0C001E520C0041520C00CA
:1011D000BF520C0060FE0020503E0C00673E0C0029
:1011E000002310B50131013902D10020136010BD78
:1011F000C45CAA2CF9D10133F5E70000014B9868D3
:1012000000F0B4B960FE002000F0BCB9084B9B6848
:1012100083420BD1EFF3058343B1064B5A6842F08A
:1012200080525A605A6A22F400425A6200F030BA80
:1012300060FE002000ED00E038B5EFF311852023BB
:1012400083F31288BFF36F8F2048FFF797FC68B9CC
:1012500088231F4A1F49204800F002FA1B491F48F3
:1012600000F0FEF988211A4800F01AFA1C4C1748C1
:10127000FFF77CFCE3691B7A8BB91448FFF78CFC01
:10128000F0B940F23113124A1649134800F0E8F958
:101290000E49154800F0E4F940F23111E3E7FDF79B
:1012A00077FAA16941B101282CBFC1EB0001C1F15E
:1012B0000101204600F066F80022E3691A72DCE7BB
:1012C00085F31188BFF36F8F38BD00BF20560C0027
:1012D000F83D0C00253E0C005F4B0C003A3E0C0024
:1012E00060FE0020503E0C00673E0C0010B5EFF38E
:1012F0001184202383F31288BFF36F8F1948FFF7FF
:101300003DFC68B98823184A1849194800F0A8F923
:101310001449184800F0A4F98821134800F0C0F9D6
:101320001048FFF723FC144BDB691A7A8AB10D4889
:10133000FFF732FC80B940F231130B4A0F490C48D9
:1013400000F08EF907490E4800F08AF940F2311199
:10135000E3E701221A72EAE784F31188BFF36F8F83
:1013600010BD00BF20560C00F83D0C00253E0C00BF
:101370005F4B0C003A3E0C0060FE0020503E0C001B
:10138000673E0C0010B5C3691A7A52B1D0E9024227
:10139000944206D0D3E90020521840F10000C3E97E
:1013A000002010BD2DE9F04107460C46EFF31186F1
:1013B000202383F31288BFF36F8F2C48FFF7DEFBE7
:1013C00068B988232A4A2B492B4800F049F9274954
:1013D0002A4800F045F98821254800F061F92348A2
:1013E000FFF7C4FB264DBFB9FDF7D2F9012838BF7E
:1013F0000120AB68A96993F838208046411A32B1C0
:10140000D3E90C20521840F10000C3E90C201C481D
:10141000FFF7B8FFC5F81880EA6905EB4715D2E970
:101420000032C4E90232E868D0E90C105B1842EBE4
:101430000002C4E90410C4E900320C48FFF7ACFB19
:1014400068B940F231130A4A0E490B4800F008F916
:1014500006490D4800F004F940F23111BCE786F36B
:101460001188BFF36F8FBDE8F08100BF20560C00DC
:10147000F83D0C00253E0C005F4B0C003A3E0C0082
:1014800060FE0020503E0C00673E0C002DE9F0414C
:1014900004460D46EFF31187202383F31288BFF330
:1014A0006F8F2A48FFF76AFB68B98823284A2949C1
:1014B000294800F0D5F82549284800F0D1F88821BE
:1014C000234800F0EDF8DFF898802048FFF74EFB46
:1014D000D8F80830A34217D1FDF75AF9012838BFD0
:1014E0000120D8F8181094F838300646411A33B164
:1014F000D4E90C325B1842F10002C4E90C321848FE
:10150000FFF740FFC8F81860D4E90C23C5E90023B1
:10151000C5E90223002200230C48C5E90423FFF794
:101520003BFB68B940F23113094A0E490A4800F002
:1015300097F806490C4800F093F840F23111BFE7E4
:1015400087F31188BFF36F8FBDE8F08120560C0040
:10155000F83D0C00253E0C005F4B0C003A3E0C00A1
:1015600060FE0020503E0C00673E0C0008B5FDF701
:101570000FF9012838BF0120014B986108BD00BF59
:1015800060FE002070B5EFF31186202383F31288EC
:10159000BFF36F8F2348FFF7F1FA68B98823224A17
:1015A0002249234800F05CF81E49224800F058F810
:1015B00088211D4800F074F81F4D1A48FFF7D6FA2D
:1015C000AC69ACB1FDF7E4F8AB6801282CBFC4EB03
:1015D0000001C4F1010193F8382032B1D3E90C20A5
:1015E000521840F10000C3E90C201348FFF7CAFE6F
:1015F00000230C48AB61FFF7CFFA68B940F2311312
:10160000094A0E490A4800F02BF806490C4800F038
:1016100027F840F23111CCE786F31188BFF36F8FC2
:1016200070BD00BF20560C00F83D0C00253E0C009C
:101630005F4B0C003A3E0C0060FE0020503E0C0058
:10164000673E0C00000000005FF800F0C9F714705E
:101650005FF800F0C92915705FF800F0D1511A70D9
:101660005FF800F0F54D1A705FF800F0B54D1A7094
:101670005FF800F02D2415705FF800F00DFB197075
:101680005FF800F0552415705FF800F00DDF18705A
:101690005FF800F0AD1F15705FF800F0C90015701D
:1016A0005FF800F0E34D1A705FF800F0D92B0E7070
:1016B0005FF800F04DFF14705FF800F039FB147014
:1016C0005FF800F059F314705FF800F0151B157007
:1016D0005FF800F01D2715705FF800F0A5E619709F
:1016E0005FF800F001891A705FF800F01F861A7029
:1016F0005FF800F0012915705FF800F0F1490E70F5
:101700005FF800F00D2915705FF800F0374D1A7082
:101710005FF800F0338A1A705FF800F0CF4D1A704E
:101720005FF800F0C53315705FF800F03D241570C8
:101730005FF800F0434D1A705FF800F0274D1A7003
:101740005FF800F005F914705FF800F0A13E0E702C
:101750005FF800F0E9881A705FF800F0391A157028
:101760005FF800F0752615705FF800F0A11F157086
:101770005FF800F0A12915705FF800F0874A1A7031
:101780005FF800F0D9851A705FF800F06D191570D8
:101790005FF800F0652815705FF800F0F111157022
:1017A0005FF800F0291C15705FF800F0C91815707B
:1017B0005FF800F0690215705FF800F0DD05157044
:1017C0005FF800F0D9FD14705FF800F05505157052
:1017D0005FF800F0350A15705FF800F0113E0E70EA
:1017E0005FF800F079F618705FF800F029E41970DE
:1017F0005FF800F0B91C15705FF800F085320A70D0
:101800005FF800F00DF314705FF800F0C5E5197093
:101810005FF800F095861A705FF800F0D5FA19703D
:101820005FF800F085420E705FF800F0BF511A704B
:101830005FF800F0613115705FF800F00D1C157055
:101840005FF800F0FF4C1A705FF800F06DE31B705A
:101850005FF800F0512C15705FF800F01F4D1A7002
:101860005FF800F041FA14705FF800F0411F157046
:101870005FF800F051FC14705FF800F0550B157024
:101880005FF800F06D851A705FF800F05B541A7015
:101890005FF800F0DD3015705FF800F057861A70C1
:1018A000574553545F544F504449522F7A657068DE
:1018B00079722F696E636C7564652F7A65706879CB
:1018C000722F7370696E6C6F636B2E68007A5F7332
:1018D00070696E5F6C6F636B5F76616C6964286CB6
:1018E000290009496E76616C6964207370696E6CB9
:1018F0006F636B2025700A007A5F7370696E5F7585
:101900006E6C6F636B5F76616C6964286C2900098B
:101910004E6F74206D79207370696E6C6F636B20ED
:1019200025700A00943E0C009B3E0C00EC420C001B
:10193000A53E0C000001010301000301616374690D
:1019400076650073757370656E646564006F6666B6
:1019500000706D5F64657669636500574553545F39
:10196000544F504449522F7A65706879722F6172D2
:1019700063682F636F6D6D6F6E2F64796E616D6933
:10198000635F6973722E630021617263685F6972BD
:10199000715F69735F656E61626C656428697271FD
:1019A00029000949525120256420697320656E6120
:1019B000626C65640A0072302F61313A2020307801
:1019C00025303878202072312F61323A202030784B
:1019D00025303878202072322F61333A2020307839
:1019E000253038780072332F61343A202030782542
:1019F000303878207231322F69703A2020307825C3
:101A0000303878207231342F6C723A2020307825AB
:101A10003038780020787073723A20203078253082
:101A2000387800735B2532645D3A202030782530A9
:101A300038782020735B2532645D3A202030782589
:101A40003038782020735B2532645D3A202030786E
:101A5000253038782020735B2532645D3A202030B1
:101A600078253038780066707363723A20203078B9
:101A7000253038780072342F76313A20203078259E
:101A8000303878202072352F76323A202030782571
:101A9000303878202072362F76333A20203078255F
:101AA0003038780072372F76343A2020307825305D
:101AB0003878202072382F76353A2020307825303B
:101AC0003878202072392F76363A20203078253029
:101AD0003878007231302F76373A20307825303818
:101AE0007820207231312F76383A203078253038FE
:101AF00078202020207073703A20203078253038EC
:101B000078004558435F52455455524E3A2030783C
:101B1000253078004661756C74696E6720696E7354
:101B20007472756374696F6E206164647265737337
:101B300020287231352F7063293A203078253038CB
:101B40007800556E68616E646C6564204952516E10
:101B50003A202564002A2A2A2A2A20425553204660
:101B600041554C54202A2A2A2A2A002020537461E5
:101B7000636B696E67206572726F7200202050720D
:101B800065636973652064617461206275732065A3
:101B900072726F720020204246415220416464728A
:101BA0006573733A2030782578002020496D707273
:101BB0006563697365206461746120627573206573
:101BC00072726F72002020496E737472756374694B
:101BD0006F6E20627573206572726F72002A2A2AF6
:101BE0002A2A204D5055204641554C54202A2A2A55
:101BF0002A2A002020537461636B696E6720657226
:101C0000726F722028636F6E7465787420617265DC
:101C100061206D69676874206265206E6F7420763C
:101C2000616C696429002020556E737461636B696F
:101C30006E67206572726F720020204461746120AB
:101C40004163636573732056696F6C6174696F6E6D
:101C50000020204D4D4641522041646472657373EB
:101C60003A2030782578002020496E7374727563AD
:101C700074696F6E204163636573732056696F6C7E
:101C80006174696F6E002020466C6F6174696E67C5
:101C90002D706F696E74206C617A79207374617431
:101CA0006520707265736572766174696F6E206508
:101CB00072726F7200574553545F544F50444952EB
:101CC0002F7A65706879722F617263682F61726D07
:101CD0002F636F72652F636F727465785F6D2F6607
:101CE00061756C742E6300212828285343425F5489
:101CF000797065202A2920282830784530303045F1
:101D0000303030554C29202B20307830443030553D
:101D10004C2920292D3E4346535220262028315558
:101D20004C203C3C20283055202B20345529292993
:101D30000009537461636B696E67206F72204461A0
:101D40007461204163636573732056696F6C6174BD
:101D5000696F6E206572726F7220776974686F7533
:101D60007420737461636B2067756172642C2075D5
:101D70007365722D6D6F6465206F72206E756C6C6B
:101D80002D706F696E746572206465746563746923
:101D90006F6E0A0A002A2A2A2A2A205553414745EB
:101DA000204641554C54202A2A2A2A2A0020204421
:101DB00069766973696F6E206279207A65726F0047
:101DC0002020556E616C69676E6564206D656D6F6E
:101DD00072792061636365737300202053746163BB
:101DE0006B206F766572666C6F772028636F6E74F8
:101DF0006578742061726561206E6F742076616C05
:101E00006964290020204E6F20636F70726F6365D4
:101E100073736F7220696E737472756374696F6E19
:101E200073002020496C6C6567616C206C6F616485
:101E3000206F66204558435F52455455524E2069E5
:101E40006E746F205043002020496C6C6567616C94
:101E500020757365206F6620746865204550535265
:101E6000002020417474656D707420746F20657853
:101E7000656375746520756E646566696E6564205A
:101E8000696E737472756374696F6E005265736501
:101E90007276656420457863657074696F6E20287A
:101EA0000053707572696F757320696E7465727214
:101EB00075707420284952512000535053454C20CE
:101EC000696E20746872656164206D6F646520645A
:101ED0006F6573206E6F7420696E646963617465E9
:101EE000205053500065736620213D202828766FCE
:101EF0006964202A293029000945534620636F75FB
:101F00006C64206E6F7420626520726574726965FE
:101F1000766564207375636365737366756C6C793D
:101F20002E205368616C6C206E65766572206F633D
:101F30006375722E0A002A2A2A2A2A20484152440E
:101F4000204641554C54202A2A2A2A2A0020204281
:101F50007573206661756C74206F6E20766563748E
:101F60006F72207461626C6520726561640020206C
:101F70004465627567206576656E74002020466151
:101F8000756C7420657363616C6174696F6E202871
:101F90007365652062656C6F772900415243485F25
:101FA00045584345505420776974682072656173C1
:101FB0006F6E2025780A00094661756C7420657380
:101FC00063616C6174696F6E20776974686F757492
:101FD0002046535220696E666F0A00094861726498
:101FE0004661756C7420776974686F757420484613
:101FF000535220696E666F205368616C6C206E6569
:10200000766572206F636375720A002A2A2A2A2A6B
:10201000204465627567206D6F6E69746F7220650C
:102020007863657074696F6E202A2A2A2A2A002A2A
:102030002A2A2A2A20257320256429202A2A2A2AA6
:102040002A00574553545F544F504449522F7A65E4
:10205000706879722F617263682F61726D2F636F80
:1020600072652F636F727465785F6D2F6670752E61
:10207000630062756666657220213D202828766FB0
:102080006964202A29302900574553545F544F5022
:102090004449522F7A65706879722F617263682F94
:1020A00061726D2F636F72652F636F727465785FF5
:1020B0006D2F6972715F6D616E6167652E6300706F
:1020C00072696F203C3D20282831554C203C3C2033
:1020D00028332929202D2031290009696E76616C69
:1020E0006964207072696F72697479202564206652
:1020F0006F7220256420697271212076616C75658C
:1021000073206D757374206265206C657373207421
:1021100068616E20256C750A0A005761726E696EDF
:102120006721205570646174696E67206578636506
:102130007074696F6E73272049535221205665636E
:10214000746F72206E756D6265723A20256400436B
:10215000616E206E6F7420757064617465207665A1
:1021600063746F72207461626C6520696E20524FD7
:102170004D21004953525F48616E646C6572207452
:102180006F20757064617465206973204E554C4CE6
:1021900021006F735F74696D65725F70656E645F57
:1021A00066756E6374696F6E5F63616C6C5F7A6590
:1021B00070687972006F735F74696D65725F6175C5
:1021C000746F5F72656C6F61645F6765745F7A6579
:1021D00070687972006F735F7461736B5F736967A6
:1021E0006E616C5F636C6561725F7A65706879724D
:1021F000006F735F7461736B5F7369676E616C5FAF
:10220000726563765F7A6570687972006F735F7468
:1022100061736B5F7369676E616C5F73656E645F3A
:102220007A6570687972006F735F7461736B5F7049
:1022300072696F726974795F7365745F7A657068CB
:102240007972006F735F7461736B5F7072696F7224
:102250006974795F6765745F7A6570687972006F19
:10226000735F6D757465785F64656C6574655F7ABE
:102270006570687972006F735F73656D5F6769760B
:10228000655F7A6570687972006F735F73656D5F03
:1022900074616B655F7A6570687972006F735F73E4
:1022A000656D5F64656C6574655F7A657068797289
:1022B000006F735F74696D65725F73746174655FDD
:1022C0006765745F7A6570687972006F735F7469AF
:1022D0006D65725F69645F6765745F7A6570687960
:1022E00072006F735F74696D65725F64656C6574AD
:1022F000655F7A6570687972006F735F74696D6588
:10230000725F73746F705F7A6570687972006F7353
:102310005F74696D65725F726573746172745F7A00
:102320006570687972006F735F74696D65725F7351
:10233000746172745F7A6570687972006F735F742C
:10234000696D65725F696E6465785F676574006F5B
:10235000735F74696D65725F68616E646C655F67F9
:102360006574006F735F6D656D5F28616C6C696784
:102370006E6564295F616C6C6F63206661696C6572
:1023800064212072616D5F747970653A2564206103
:102390006C6C6F635F73697A653A307825780A00F0
:1023A0006F735F686561705F696E692061746F6DDE
:1023B0006963206F7065726174696F6E2066616910
:1023C0006C6564210068656170206D656D6F727960
:1023D000207363616E3A7372616D2025642C2062F4
:1023E00075666665722072616D2025642C204454E8
:1023F000434D2025642C204954434D202564004939
:102400006E76616C69642072616D5F7479706520AD
:10241000256420666F72206F735F6D656D5F7065F8
:10242000656B210A0052414D2074797065206F66FA
:1024300020686561703A2025642C206865617020F1
:1024400073697A653A2025642C20616C6C6F636136
:102450007465642025642C20667265652025642CD3
:10246000206D617820616C6C6F63617465642025F8
:10247000640A00616C6C6F6320717565756520621C
:102480007566666572206661696C65642062656365
:102490006175736520646174612072616D20686587
:1024A00061702069732066756C6C00616C6C6F6381
:1024B000207175657565206F626A65637420666159
:1024C000696C65642062656361757365206461741D
:1024D000612072616D206865617020697320667586
:1024E0006C6C00616C6C6F63206D75746578206F27
:1024F000626A656374206661696C65642062656305
:102500006175736520646174612072616D20686516
:1025100061702069732066756C6C0025733A204DDC
:102520007574657820706F696E74657220697320A8
:102530004E554C4C2C2064656C6574652066616951
:102540006C21004D7574657820706F696E746572CA
:10255000206973204E554C4C2C20676976652066A7
:1025600061696C21004D7574657820706F696E74B7
:102570006572206973204E554C4C2C2074616B653C
:10258000206661696C21005B504D5D212168616EA0
:10259000646C653D307825782C206578636C7564B3
:1025A000652074696D65722063616E6E6F74206260
:1025B00065206175746F5F72656C6F61640A0057A6
:1025C0004553545F544F504449522F7A657068798F
:1025D000722F736F632F7265616C74656B2F626508
:1025E000652F72746C38377833672F6F7369662F75
:1025F0007A65706879722F6F7369665F7A65706843
:1026000079722E63003000415353455254494F4E66
:10261000204641494C205B25735D20402025733ABC
:1026200025640A00095B504D5D212168616E646C70
:10263000653D307825780A007A6570687972206483
:102640006F6573206E6F7420737570706F72742075
:102650006F735F73636865645F7374617274210084
:102660007A657068797220646F6573206E6F74206C
:10267000737570706F7274206F735F7363686564D5
:102680005F73746F702100616C6C6F632073656D94
:10269000206F626A656374206661696C656420629C
:1026A00065636175736520646174612072616D207A
:1026B000686561702069732066756C6C0025733ADB
:1026C0002053656D20746F2064656C6574652069A6
:1026D000732061204E554C4C20706F696E7465728A
:1026E000210025733A2053656D20706F696E746503
:1026F00072206973204E554C4C2C206769766520FA
:102700006661696C210025733A20416C6C20746FFE
:102710006B656E73206861766520616C72656164BB
:1027200079206265656E2072656C65617365640011
:1027300025733A2053656D20706F696E7465722041
:102740006973204E554C4C2C2074616B652066617A
:10275000696C2100457863656564204D6178206E61
:10276000756D626572206F66207461736B733A20B9
:1027700025642100616C6C6F63207468726561640C
:1027800020737461636B206661696C6564206265A7
:10279000636175736520646174612072616D206886
:1027A0006561702069732066756C6C006F735F746F
:1027B00061736B5F64656C657465206572726F72BE
:1027C000210025732C20705F7072696F72697479B3
:1027D000206973204E554C4C0025733A20496E7683
:1027E000616C6964207072696F726974792E20500F
:1027F00072696F7269747920697320657870656396
:1028000074656420746F2030207E20362E006F7334
:102810005F7461736B5F726573756D65206572724D
:102820006F72210025733A206F7369662D7461738E
:102830006B20686173206E6F7420637265617465CC
:1028400064210025733A20696E707574207369677E
:102850006E616C20706F696E7465722063616E6E5C
:102860006F74206265204E554C4C21002573206307
:10287000616E6E6F742062652063616C6C656420AC
:10288000696E20495352210025732074696D656F6C
:10289000757421002573206572726F7220726574E1
:1028A0002076616C75652C20256421007469642D87
:1028B0003E706F6C6C5F6576656E742E73746174B8
:1028C00065203D3D20283155203C3C2028285F5084
:1028D0004F4C4C5F53544154455F5349474E414C14
:1028E000454429202D203155292900096576656E3A
:1028F00074207374617465206E6F74207369676EE1
:10290000616C6C6564210A007469642D3E706F6CA3
:102910006C5F6576656E742E7369676E616C2D3EB3
:102920007369676E616C6564203D3D203100096507
:1029300076656E74207369676E616C656420697377
:10294000206E6F7420310A0025733A20546172673B
:102950006574207461736B2068616E646C652069B6
:10296000732061204E554C4C20706F696E746572F7
:102970002C206F7220696E707574207369676E61A8
:102980006C206973203021006F735F7461736B5F1B
:1029900073757370656E64206572726F7221006367
:1029A000616E6E6F74207969656C64207461736BFD
:1029B00020696E2069737221004578636565642023
:1029C0004D6178206E756D626572206F6620746946
:1029D0006D6572733A20256421004661696C6564F7
:1029E00020746F2073746F72652074696D65722036
:1029F000696E20706F6F6C2C20706F6F6C20697324
:102A00002066756C6C2E0025733A2074696D6572B2
:102A10002068616E646C6520706F696E74657220E9
:102A20006973206E6F74206465636C6172656421E4
:102A30000025733A2074696D65722068616E646C5C
:102A40006520706F696E746572206973204E554CF5
:102A50004C210025733A20696E7075742074696D7D
:102A600065725F696E646578202564206973206FE4
:102A70007574206F6620626F756E6421204D6178D9
:102A80002074696D6572206E756D6265723A256499
:102A90000025733A205661726961626C6520746921
:102AA0006D65722068616E646C6520706F696E740C
:102AB0006572206973206E6F74206465636C617247
:102AC0006564210025733A2074696D657220686120
:102AD0006E646C6520706F696E7465722069732016
:102AE0004E554C4C2C206F72206E6F7420646563C1
:102AF0006C61726520612074696D65722068616E19
:102B0000646C6520706F696E746572210025733A7C
:102B1000205741524E494E47212074696D657220FD
:102B20002868616E646C6520257829206973206EA1
:102B30006F7420696E207468652074696D657220F9
:102B4000706F6F6C0025733A20416C6C6F6320705E
:102B5000656E6463616C6C20646174612066616998
:102B60006C6564206265636175736520646174617E
:102B70002072616D20686561702069732066756CD4
:102B80006C0025733A2074696D6572206973206941
:102B90006E6163746976652C2063616E6E6F74205C
:102BA00073746F7021004465766963652025732016
:102BB000646964206E6F7420656E7465722025737D
:102BC00020737461746520282564290072746C3840
:102BD000377833675F706D00574553545F544F50DB
:102BE0004449522F7A65706879722F617263682F39
:102BF000636F6D6D6F6E2F73775F6973725F636F55
:102C00006D6D6F6E2E63007461626C655F696478D0
:102C1000203C2028313136202D203029002B000087
:102C2000B8510C0005000000D8510C00070000004E
:102C3000BE510C0008000000C7510C000400000049
:102C40009B3E0C0009000000CC510C000800000065
:102C5000D5510C000A000000E0510C0006000000F5
:102C600064756D6D7900707265737461727400645F
:102C70006561640061626F7274696E670073757379
:102C800070656E64696E67007175657565640021B5
:102C9000617263685F69735F696E5F697372282927
:102CA000000954687265616473206D6179206E6FEC
:102CB00074206265206372656174656420696E20AA
:102CC000495352730A00574553545F544F50444977
:102CD000522F7A65706879722F6B65726E656C2FF2
:102CE0007468726561642E630028282828707269F0
:102CF0006F2929203D3D203135202626207A5F6925
:102D0000735F69646C655F7468726561645F656E4A
:102D10007472792828656E747279292929207C7C3F
:102D2000202828283135202D203129203E3D2028FB
:102D3000282D302929292026262028287072696FFD
:102D40002929203E3D2028282D30292920262620EB
:102D500028287072696F2929203C3D2028313520B0
:102D60002D20312929290009696E76616C6964205A
:102D70007072696F7269747920282564293B20611B
:102D80006C6C6F7765642072616E67653A202564AC
:082D900020746F2025640A0085
:042D98002D1A0C00E4
:102D9C0093A92A40FCA9AA410000000000000000F1
:102DAC000100000000000000000000000000000016
:102DBC000000000000000000000000005CB41E7069
:102DCC00274A1A704D4A1A70514A1A70554A1A708D
:102DDC00594A1A7009260E70634A1A70774A1A708B
:102DEC00714A1A70000000006B4A1A700000000053
:102DFC000000000000000000674A1A70DC06022088
:102E0C0000780000002800000000082400002800C2
:0C2E1C00BD260E70000000001400000035
:102E28009FED0B7B41EC160B9FED0B5B26EE077BB2
:102E3800BCEEC77BB8EE474B17EE101AA4EE456BF5
:102E4800FCEEC67B17EE900A704700BFAFF3008018
:102E5800000000000000F03D000000000000F0410C
:102E680081F0004102E000BF83F0004330B54FEA33
:102E780041044FEA430594EA050F08BF90EA020FA0
:102E88001FBF54EA000C55EA020C7FEA645C7FEA33
:102E9800655C00F0E2804FEA5454D4EB5555B8BF56
:102EA8006D420CDD2C4480EA020281EA030382EAC7
:102EB800000083EA010180EA020281EA0303362D59
:102EC80088BF30BD11F0004F4FEA01314FF4801C2C
:102ED8004CEA113102D0404261EB410113F0004F3E
:102EE8004FEA03334CEA133302D0524263EB4303F5
:102EF80094EA050F00F0A780A4F10104D5F1200E93
:102F08000DDB02FA0EFC22FA05F2801841F10001ED
:102F180003FA0EF2801843FA05F359410EE0A5F1C1
:102F280020050EF1200E012A03FA0EFC28BF4CF0F2
:102F3800020C43FA05F3C01851EBE37101F00045A8
:102F480007D54FF0000EDCF1000C7EEB00006EEBB5
:102F58000101B1F5801F1BD3B1F5001F0CD349083F
:102F68005FEA30004FEA3C0C04F101044FEA445296
:102F780012F5800F80F09A80BCF1004F08BF5FEA1D
:102F8800500C50F1000041EB045141EA050130BDFD
:102F98005FEA4C0C404141EB0101013C28BFB1F50F
:102FA800801FE9D291F0000F04BF01460020B1FA5A
:102FB80081F308BF2033A3F10B03B3F120020CDA2D
:102FC8000C3208DD02F1140CC2F10C0201FA0CF00B
:102FD80021FA02F10CE002F11402D8BFC2F1200C70
:102FE80001FA02F120FA0CFCDCBF41EA0C01904026
:102FF800E41AA2BF01EB0451294330BD6FEA04046F
:103008001F3C1CDA0C340EDC04F11404C4F1200259
:1030180020FA04F001FA02F340EA030021FA04F36B
:1030280045EA030130BDC4F10C04C4F1200220FAC2
:1030380002F001FA04F340EA0300294630BD21FA00
:1030480004F0294630BD94F0000F83F4801306BFC6
:1030580081F480110134013D4EE77FEA645C18BFBA
:103068007FEA655C29D094EA050F08BF90EA020F51
:1030780005D054EA000C04BF1946104630BD91EA49
:10308800030F1EBF0021002030BD5FEA545C05D14C
:103098004000494128BF41F0004130BD14F580048B
:1030A8003CBF01F5801130BD01F0004545F0FE41FF
:1030B80041F470014FF0000030BD7FEA645C1ABF34
:1030C800194610467FEA655C1CBF0B46024650EA6B
:1030D800013406BF52EA033591EA030F41F4002197
:1030E80030BD00BF90F0000F04BF0021704730B51D
:1030F8004FF4806404F132044FF000054FF00001F2
:1031080050E700BF90F0000F04BF0021704730B5B2
:103118004FF4806404F1320410F0004548BF404287
:103128004FF000013EE700BF42004FEAE2014FEADC
:1031380031014FEA02701FBF12F07F4393F07F4FB7
:1031480081F06051704732F07F4208BF704793F0BA
:103158007F4F04BF41F40021704730B54FF46074CD
:1031680001F0004521F000411CE700BF50EA0102D0
:1031780008BF704730B54FF000050AE050EA010279
:1031880008BF704730B511F0004502D5404261EBE9
:1031980041014FF4806404F132045FEA915C3FF42A
:1031A800D8AE4FF003025FEADC0C18BF03325FEAC7
:1031B800DC0C18BF033202EBDC02C2F1200300FA78
:1031C80003FC20FA02F001FA03FE40EA0E0021FA9D
:1031D80002F11444BDE600BF7BB972B90029BEBF35
:1031E80000204FF0004106E008BF00281CBF6FF028
:1031F80000414FF0FF3000F03FB8ADF1080C6DE929
:1032080004CE002909DB002B1ADB00F00CFFDDF8E7
:1032180004E0DDE9022304B07047404261EB41015C
:10322800002B1BDB00F0FFFEDDF804E0DDE90223E4
:1032380004B0404261EB4101524263EB43037047E3
:10324800524263EB430300F0EEFEDDF804E0DDE9F3
:10325800022304B0404261EB41017047524263EBE4
:10326800430300F0E0FEDDF804E0DDE9022304B0EA
:10327800524263EB43037047704700BF844641EAFC
:10328800000313F0030349D1403A23D30B680360CA
:103298004B6843608B688360CB68C3600B690361CC
:1032A8004B6943618B698361CB69C3610B6A0362B4
:1032B8004B6A43628B6A8362CB6AC3620B6B03639C
:1032C8004B6B43638B6B8363CB6BC3634030403181
:1032D800403ADBD230320BD30B6803604B68436053
:1032E8008B688360CB68C36010301031103AF3D21A
:1032F8000C3205D351F8043B40F8043B043AF9D2A8
:10330800043208D0D2071CBF11F8013B00F8013B7A
:1033180001D30B8803806046704700BF082A13D387
:103328008B07B1D010F00303AED0C3F10403D21A57
:10333800DB071CBF11F8013B00F8013BA4D331F8AF
:10334800023B20F8023B9FE7043AD9D3013A11F82F
:10335800013B00F8013BF9D20B7803704B784370BE
:103368008B7883706046704780EA010C1CF0030F6D
:1033780037D110F0030C20F0030021F0030150F8BE
:10338800042B08BF51F8043B0ED08CF0030C6FF0EF
:103398007F434FEACC0C23FA0CFC51F8043B42EA79
:1033A8000C0243EA0C0300BFA2F1013C9A4201BFA0
:1033B8002CEA020C1CF0803F50F8042B51F8043B17
:1033C800F2D04FEA02604FEA1222012828BFB0EB80
:1033D800036F08BF1B0AF4D003F0FF03000EC01AE6
:1033E800704710F0030F0AD010F8012B11F8013BB9
:1033F800012A28BF9A42F4D0A2EB030070474DF887
:10340800045D50F8042B01F0030521F0030151F885
:10341800043B022D26D04DD822F07F45B5EB132F63
:10342800A2F1013C2CEA020C0DD11CF0803C08BF33
:1034380051F8043B0AD185EA0205B5EB036F0CD1BC
:1034480050F8042BE8E74FEA13235BE03CF07F4C8D
:1034580054D10B784FEA126554E04FEA126503F035
:10346800FF034FE04FEA0245A2F1013C4FEA154540
:103478002CEA020CB5EB134F18D11CF0803C08BFA6
:1034880051F8043B07D185EA0205B5EB034F09D192
:1034980050F8042BE6E75FEA0C4C2FD10B884FEA73
:1034A80012452FE04FEA03434FEA12454FEA134310
:1034B80028E000BF02F0FF05B5EB136FA2F1013C55
:1034C8002CEA020C0DD11CF0803C08BF51F8043BDB
:1034D8000AD185EA0205B5EB032F0AD150F8042B6F
:1034E800E8E74FEA13630DE012F0FF0F06D051F83A
:1034F800043B4FEA122523F07F4303E04FF000001E
:1035080020BC704705F0FF0203F0FF00012828BF28
:10351800904204BF2D0A1B0AF4D0A2EB000020BC85
:10352800704700BF03685A004CBF43F0004323F0C4
:103538000043184470472DE9F0470646174641B343
:1035480001394FF00009884609EB080404EBD474EC
:10355800641006EBC4054FEAC40A2846FFF7E2FFE9
:10356800A14204D1B84204D82846BDE8F087B84241
:1035780004D9A1450DD004F1FF38E5E70AF10800A8
:103588003044FFF7CFFF0138B842EDD204F101090A
:10359800DAE70025E8E7012806D0022806D0002847
:1035A800034818BF00207047024870470248704718
:1035B800B93B0A70BD3B0A70C13B0A701F4B37B557
:1035C80004468D1E4BB101A92846AFF3008048B9C7
:1035D80000230920236103B030BD1948194B1B1A79
:1035E800DB10019301992A46FFF7A5FF0146002841
:1035F800EED0FFF797FF4B68A064012B1AD0002B81
:1036080001F1040010DBFFF78DFF0023C4E9130369
:103618000368002B0ADAC3F30360FFF7BCFF034615
:103628000028D5D00020D5E70123EFE7FFF77AFF80
:103638000346F7E700230520CCE700BF00000000A1
:10364800F00F1C7080271C700368DA0710B5044659
:1036580005D49B0700F1480018D500F0F7FB236854
:10366800590703D404F1D00000F0F8FB23681A07C7
:1036780003D404F5A87000F0F9FB2368DB0608D42E
:1036880004F5E870BDE8104000F034BC00F0D6FB4B
:10369800E5E710BD092070470346006800B11844EB
:1036A8007047704770B505460C46216C2846FFF7F1
:1036B80085FF064608B141F07DF9236C224629466C
:1036C80001206B612B6998470828EED00728F2D1B2
:1036D8003046216CFFF7E5FF201D00F0A3FB2DE924
:1036E800F0470C1DADF5727DD0F80C900746D0F868
:1036F80018A0164603AD0DF108080FCC0FC50FCC66
:103708000FC50FCC0FC594E80F0085E80F00002502
:10371800C8F800500936D8F840103846FFF74EFF71
:103728000446F6B268BBD8F840304FF4F072414610
:103738007AA87B61FFF7A2FD3B697AAA3946304631
:103748009847889B0546C8F844303A463B46314678
:103758000120CDE9008AC847C0B9C4B94FF4F07256
:103768007AA940462646FFF789FD082DD2D0072DB5
:103778000CD12046D8F84010FFF793FF03A800F0BB
:1037880051FB46F01006D8F83830DCE7092420460B
:103798000DF5727DBDE8F087406C7047F0B5CB6BD6
:1037A800F9B00D1D06460B640F4601AC0FCD0FC4D2
:1037B8000FCD0FC40FCD0FC495E80F0084E80F009C
:1037C8004FF0FF33009310993046FFF7F7FE78B9B2
:1037D80033696A463146984708280446F3D0684654
:1037E800FFF732FF062C03D139463046FFF75AFF60
:1037F800092079B0F0BD10B48261DA6BC160194656
:103808001A64002210BC6AE770B543690446C668AA
:103818000D460B6426B10122FFF761FF41F0CAF89B
:1038280003690A46014602209847072805D0082858
:10383800F4D129462046FFF735FF3046296CFFF7BB
:1038480030FF281D00F0EEFAC26802B9A6E7CA6B7D
:103858000A64002243E77047836801460BB10120E0
:1038680018477047012910B50446084605D005D900
:10387800C81E01288CBF0220012010BD43B90F2AA1
:1038880006D804EB8204029A184661681160F4E7CE
:103898000220F2E71FB503AB0A460093002319463E
:1038A800FFF7E0FF039805B05DF804FB012910B5A8
:1038B8000446084605D005D9C81E01288CBF022039
:1038C800012010BD43B90F2A06D8029904EB8204DF
:1038D800184609686160F4E70220F2E71FB503ABF8
:1038E80003920A46009300231946FFF7DFFF05B04D
:1038F8005DF804FBF0B5D36BADF50F7D141D0646DE
:1039080013640F4617AD0FCC0FC50FCC0FC50FCCE6
:103918000FC594E80F0085E80F004FF0FF331693AA
:1039280026996846FFF74AFE90B90C2116A86A4600
:10393800FFF7D4FF394616A8B04748B9049B16AA22
:103948006946082098470528044602D00928E7D187
:10395800092416A8FFF778FE20460DF50F7DF0BD67
:103968002DE9F04FCD6C87B017460C4655F8042B5F
:1039780000F003099A4604953BBB12028DF81530F6
:1039880003230392B9F1020F8DF81430236D08BF99
:10399800A56B13F0010322D100F0080800932B68EF
:1039A80043BB03A9384600F0B1FC002840F0FB8077
:1039B800009BDBB10F213846FFF76CFF0E21024652
:1039C8003846FFF78BFF794A55E0130C12048DF83F
:1039D8001530DBB2039205EB83050223D2E703A976
:1039E800384600F093FC002840F0DD80082007B03E
:1039F800BDE8F08FBAF1020FA26C4FF00F01384604
:103A080007BFD5F804B005F10806B5F802B02E1DB9
:103A180018BF2B882BF0010501931544FFF73AFFD7
:103A2800019B854229D823F001022A44824294BF8F
:103A3800002201224FEA4B0003F0010300F00200CC
:103A480040EA0305012D1AD0022D5ED0002D40F06A
:103A5800AA80351DB9F1000FA1D0002A9FD03046A9
:103A6800FFF760FDA5630646204618F116FC0028FE
:103A780000F0998032460F213FE00022DAE7B9F1E1
:103A8800000F26D1002A3DD073683268991C4FEA8E
:103A9800D27200F0888004F158010133029109D0F4
:103AA800301DFFF7F9FD02AB01462046E6F062FC47
:103AB800054638B30D213846FFF7ECFE022D029B70
:103AC800206202D1E36204F12C030620C4E909361E
:103AD8008DE7256A0D213846FFF7DCFE854211D1B6
:103AE800A36A9E420ED13046FFF71CFD0F21024605
:103AF8003846FFF7F3FE224600213846FFF7EEFE70
:103B0800072074E706F1080549E7356825F0004500
:103B1800B9F1000F2AD1A2B1B8F1000F19D085B9B7
:103B2800CB4617E00BF1010B019B002206EB8B0043
:103B38000293FFF7B1FD02AB01462046E6F01AFCFE
:103B480058B13368002B00DA0436013506EB8505D9
:103B580025E7C34604F158030193AB45E2D10D2193
:103B68003846FFF797FE029B2062AEE7D4F820B0F4
:103B78000D213846FFF78EFE8345E2D1A36A9E42A7
:103B8800DFD14FF0000B0423A562C4E90BB3F3188F
:103B9800636333685B4503DA681C06EB8000A3E7C0
:103BA80001230093D1E7092021E700BF5DA4187025
:103BB8000023D5E60123D3E60223D1E62DE9F0411F
:103BC8000546C2B014461E46042925D8DFE811F080
:103BD80005001C002400D6000301EEB9836B92B2E5
:103BE8000121043001FA06F717421CBF53F8047B81
:103BF80040F826700136102EF4D1A60400D4AB6329
:103C0800002042B0BDE8F081012E4FEA124794B27D
:103C180004D13B19102B41D90220F2E7052EFBD124
:103C280007EB0408B8F1200FF6D80F2F4DD9002C58
:103C3800E6D00368A046580708D523F004032846B1
:103C480040F8D03B00F00EF90F2F48D9684600F035
:103C580009F9AB6B102F3A4642A94FEA480838BF1A
:103C680010221C4608F1FF3801EBC2024FEA880116
:103C7800A2F5C472101F02EB880254F804CB40F876
:103C880004CF8242F9D10A1D012E134417D00F2FF9
:103C9800AB636FD9684600F0E1F8B1E7102FBBD0ED
:103CA8000368DA0705D523F0030340F8483B00F022
:103CB800C9F820A800F0C6F8AB6B002C3FD104333C
:103CC80020A8AB6300F0BAF89AE7B8F1100F0368C0
:103CD8002DD9DC07A8F1100842D45807ADD420A884
:103CE800C7F1100400F0B6F8684600F0BBF820AA47
:103CF8006400AB6B02EBC702013C101FA10002EB92
